:100000000C9434000C9449000C9449000C94490061
:100010000C9449000C9449000C9449000C9449003C
:100020000C9449000C9449000C9449000C9449002C
:100030000C9449000C9477000C9449000C944900EE
:100040000C9449000C9449000C9449000C9449000C
:100050000C9449000C9449000C9449000C944900FC
:100060000C9449000C94490011241FBECFEFD8E036
:10007000DEBFCDBF11E0A0E0B1E0EEEFF1E002C0E5
:1000800005900D92AA30B107D9F70E9470000C9428
:10009000FD000C940000FC01408121E030E002C032
:1000A000220F331F6A95E2F7242B20830895FC0169
:1000B000908121E030E002C0220F331F6A95E2F701
:1000C0002095292320830895FC01408121E030E020
:1000D00002C0220F331F6A95E2F7242B2083089574
:1000E0000E94810060E18DE00E949100FFCF1F928D
:1000F0000F920FB60F9211240F900FBE0F901F900A
:10010000189564E08AE290E00E944B0067E08AE282
:1001100090E00E944B0060E084E290E00E944B007F
:100120000895CF93DF93E82FF0E0E050FF4FC081B8
:1001300064E08BE290E00E94570067E08BE290E081
:100140000E94570060E08BE290E00E94570085E03B
:100150008A95F1F70000D8E0C0FF06C060E085E2B4
:1001600090E00E94640005C060E085E290E00E949B
:10017000570085E08A95F1F7000067E08BE290E098
:100180000E94640085E08A95F1F7000067E08BE249
:1001900090E00E945700C695D150F1F6D8E0C170AA
:1001A000CC2331F060E085E290E00E94640005C05D
:1001B00060E085E290E00E94570085E08A95F1F7C3
:1001C000000067E08BE290E00E94640085E08A9581
:1001D000F1F7000067E08BE290E00E945700D150F9
:1001E000F9F664E08BE290E00E94640085E08A9575
:0E01F000F1F70000DF91CF910895F894FFCF52
:0A01FE00039F250D9949411F0119C7
:00000001FF
