S01800004C414230325F4C45442D427574746F6E2E73726563FE
S11300000C9434000C943E000C943E000C943E007E
S11300100C943E000C943E000C943E000C943E0064
S11300200C943E000C943E000C943E000C943E0054
S11300300C943E000C943E000C943E000C943E0044
S11300400C943E000C943E000C943E000C943E0034
S11300500C943E000C943E000C943E000C943E0024
S11300600C943E000C943E0011241FBECFEFD8E048
S1130070DEBFCDBF0E9440000C9453000C940000DE
S1130080209A28983D9A45985098589A21E090E2F1
S11300904899FECF85B1822785B988B1892788B967
S10D00A0489BFECFF5CFF894FFCF84
S9030000FC
